:02000004080AE8
:1000000000000A085C380A08000006000600050126
:080010000402E80500000000F5
:04001800D4320A08CC
:1000200009480A4908B5884205D0094A824202D0E7
:10003000121A03F00BF90748074A0021121A03F0BD
:1000400010F9064808BD00BF00000020C4370A08A8
:1000500070000020700000202806002028060020E4
:1000600070B501F099FF074B074C1E46E41AA4082F
:100070000025A54204D056F8253098470135F8E709
:1000800070BD00BF88370A08BC370A0800F0A0BA64
:1000900008B500F065FCBDE8084001F03FBF00F086
:1000A00057BE00F05DBE0078B0FA80F0400970479E
:1000B0000123037070470368C9B29B6818477047F3
:1000C00008B501F0AFFF402100F0EFFE01F0AAFFFC
:1000D000FC21FFF7F0FF01F0A5FFC921FFF7EBFFBF
:1000E00001F0A0FF00F0E8FE01F09CFF012240219A
:1000F00000F0D4FE01F096FF03685B699847C0B238
:1001000008BD38B5E02914BF032502250C4601F0CF
:1001100089FF402100F0C9FE01F084FF03682146F9
:100120009B68984701F07EFF00F0C6FE642000F057
:1001300037FE01F077FF2A46402100F0AFFE65242C
:1001400001F070FF03681B699847A84206DA012096
:1001500000F026FE013CF3D1642038BD01F062FFBF
:1001600003685B699847044601F05CFF03685B69BC
:10017000984700F0FC0040EA042080B238BD00003F
:1001800008B5F521FFF7BDFF02F046FA0022074B44
:1001900002F0A8FA0022064B02F0A4FA0022054B56
:1001A00002F0ECF802F096FD08BD00BF00405F4091
:1001B0000000F03E0000184008B5F321FFF7A1FF52
:1001C00002F02AFA08A3D3E9002302F08BFA0022F6
:1001D000094B02F087FA06A3D3E9002302F0CEF818
:1001E00002F078FD08BD00BFD7A3703D0AF7654057
:1001F000CDCCCCCCCC6C47400000F03E00000000E1
:1002000008B5FFF7D9FF02F019FA07A3D3E90023D5
:1002100002F068FA0022064B02F0B2F802F05AFD32
:1002200008BD00BFAFF30080CDCCCCCCCCCCFC3F24
:100230000000404010B50C4601F0F4FE602100F0D3
:1002400034FE01F0EFFE036821469B68984701F0F9
:10025000E9FE002100F02CFE01F0E4FE0122602105
:1002600000F01CFE01F0DEFE03685B699847C0B237
:1002700010BD000038B5054601F0D4FE00F0DAFDEF
:100280000C212846FFF7D6FF04462846FFF718FF43
:10029000152802D0322815D10EE0C42C03D101F06C
:1002A00049FD164902E001F045FD154901F00DF840
:1002B00001F040FD13491CE0C42C0ED101F03AFDC1
:1002C0000E490DE0C42C11D101F034FD0B4900F0B2
:1002D000FCFF01F02FFD0C490BE001F02BFD08495C
:1002E00000F0F3FF01F026FD084902E001F022FDD5
:1002F0000749BDE8384000F0E8BF00BFE8320A080F
:1003000012330A08F8320A0826330A0805330A08A5
:1003100047330A0838B514460D4601F083FE6021C4
:1003200000F0C3FD01F07EFE036829469B689847F4
:1003300001F078FE036821469B68984701F072FE41
:10034000BDE83840012100F0B3BD10B526210446B8
:10035000FFF770FF262100F07F022046BDE8104025
:10036000FFF7D8BF072928BF072138B50D4626213A
:100370000446FFF75FFF00F0C70040EAC502D2B2B3
:100380002046BDE838402621FFF7C4BF07221321CD
:10039000FFF7C0BF10B526210446FFF74BFF26210B
:1003A00000F0FD022046FFF7B5FF26212046FFF7AB
:1003B00041FF40F00202D2B22046BDE810402621A3
:1003C000FFF7A8BFF8B507460021FFF733FF00216C
:1003D0003846FFF72FFF01F025FE602100F065FD94
:1003E00001F020FE0121FFF766FE01F01BFE002157
:1003F00000F05EFD01F016FE0322602100F04EFDCC
:1004000003282DD101F00EFE03685B69984704466E
:1004100001F008FE036824045B699847054601F073
:1004200001FE03682D025B699847C6B23846FFF7A4
:10043000B1FFC6F3011002F053FD4FF07A5102F004
:10044000A7FD05F47F4504F47F042C43344305469F
:10045000A00902F049FD0146284602F091FCF8BDD2
:100460000048F8BD00C079C4F8B50021074640F245
:100470005924FFF7DFFE00213846FFF7DBFE820735
:1004800007D4013C01D12948F8BD012000F088FCC7
:10049000F1E701F0C7FD602100F007FD01F0C2FDAA
:1004A0000421FFF708FE01F0BDFD002100F000FD72
:1004B00001F0B8FD0222602100F0F0FC0228E2D138
:1004C00001F0B0FD03685B6998470646C5B201F0CC
:1004D000A9FD03685B699847C4B23846FFF75AFF25
:1004E000330641BF04EB05246442A4B2250A48BF89
:1004F00004F0F0044FEA14104CBF0126002602F06D
:100500008BF800220A4B02F0EDF802F0E3FB044600
:10051000284602F0E9FC0146204602F031FC1EB1FB
:100520000146002002F02AFCF8BD00BF00C079C4DB
:100530000000B03F08B5FFF797FF02F07FF80022F8
:10054000064B02F0CFF80022054B02F0F5F900222D
:10055000044B01F015FF02F0BDFB08BD0000224076
:10056000000014400000404000F04ABA38B50B4B80
:100570008469054603607CB16368013B63605BB9D5
:10058000236820469B689847A368013BA3601BB97A
:1005900023682046DB689847284638BD04360A0899
:1005A00010B50446FFF7E2FF20461C2101F07DFD57
:1005B000204610BD38B5054608460C4602F082FEBE
:1005C000214602462846BDE8384000F0BBBD000089
:1005D0002DE9F041284B94B01D68284B1C6825B1CB
:1005E000284602F06FFE074600E02F4624B1204661
:1005F00002F068FE064600E026464FF04C084246F0
:10060000002101A802F02DFE049403231C4C8DF858
:1006100018300023194601AA6068CDF804800295BD
:100620000397059600F07CFB01F084FB4FF4165114
:1006300001F066FB00231A461946606800F030FBA3
:1006400000221146606800F043FB20B94FF4FA70B5
:1006500000F0A6FBF4E70B48FFF70CFE0948FFF794
:1006600074FE07210748FFF77DFE0648FFF78EFE60
:1006700014B0BDE8F08100BF04000020000000209D
:10068000400500207800002010B50B4C2046FFF7F5
:1006900077FD0A4B18602046FFF7B2FD084B186043
:1006A0002046FFF747FF074B18602046FFF78AFEFA
:1006B000054B186010BD00BF78000020A40000208A
:1006C0007400002080000020A000002010B5A0B021
:1006D000044605A801F0DEF9234B24491868009070
:1006E00001A800F07EFF69460CA800F057FC00232B
:1006F00040F6B9320CA905A801F0B6F838B3204687
:1007000002F0E0FD1A4902460CA800F039FB01F0A6
:1007100011FB184900F0C6FD174905A800F0D5FDEA
:10072000164905A800F0D1FD154905A800F0CDFD3A
:100730000CA905A800F0C9FD05A800F0BAFD2146E6
:1007400005A800F0AFFD05A801F074F804E001F081
:10075000F1FA0C4900F0B9FD01A800F0FBFE05A874
:10076000FFF704FF20B010BD5B330A0862350A08AA
:100770005F330A0872330A087C330A0893330A0885
:10078000AB330A08CA330A082DE9F047DFF8C891ED
:10079000A0B001F0CFFA604C604900F083FD01F099
:1007A000C9FA0222D9F8001000F072FEDFF8AC811D
:1007B00001F0C0FA214600F075FD01F0BBFA58497E
:1007C00000F070FD01F0B6FA0222D8F8001000F037
:1007D0005FFE544F01F0AEFA534900F063FD01F0A3
:1007E000A9FA524900F05EFD01F0A4FA022239682C
:1007F00000F04EFE01F09EFA214600F053FD01F09C
:1008000099FA4B4900F04EFD01F094FA494E044626
:100810004949306802F070FC02220146204600F08F
:1008200037FE01F087FA454900F03CFD01F082FAFD
:1008300041490446306802F05FFC01F0FFFE34A33A
:10084000D3E9002301F04EFF0223009302460B463A
:10085000204607AC00F02BFE64220021204602F067
:1008600000FD374B0025029302A8632305938DF802
:100870000C500494069500F0F1FB324902A8FFF7F2
:1008800099FE8246D9F8000001F0D8FE02460B46D8
:10089000504600F0EFFB2C4902A8FFF78BFE814683
:1008A000D8F8000001F0CAFE02460B46484600F0A8
:1008B000E1FB264902A8FFF77DFE8046386801F07B
:1008C000BDFE02460B46404600F0D4FB204902A87C
:1008D000FFF770FE18490746306802F00DFC01F082
:1008E000ADFE02460B46384600F0C4FB02A800F0FD
:1008F0009FFB01F01FFA2346164A294600F0DCFD53
:100900002046FFF7E3FE20B0BDE8F087AFF300809C
:10091000B0E600C11C3D9E3FDC330A08F3330A08F1
:10092000E0330A0880000020EA330A08EE330A08A0
:10093000F9330A08A00000200000C84203340A0866
:1009400088340A0817340A0809340A0812340A08D5
:100950001C340A0825340A0874000020A400002072
:1009600010B5FFF791FE00F043F8074C2368C01A5A
:1009700041F28833984206D900F03AF82060BDE889
:100980001040FFF701BF10BD7C00002038B50D4CB2
:1009900000F036F80C4D204601F07CF820460B4C58
:1009A0002A460B4901F07CFB0A49204600F019FE5B
:1009B0002A462046084901F073FBBDE83840074845
:1009C000FFF77DBB8400002070000020A8000020FD
:1009D0006D050A0862350A0855150A0878000020D6
:1009E00008B5024B1B685B68019308BD9C010608B3
:1009F00008B5024B1B685B69019308BD9C010608A2
:100A000008B5024B1B681B68019308BDB0010608BE
:100A100008B5024B1B68DB6C019308BDAC010608EE
:100A200008B5024B1B689B6D019308BDAC0106081D
:100A300008B5024B1B68DB6D019308BDAC010608CD
:100A400008B5024B1B681B6E019308BDAC0106087C
:100A500008B5024B1B685B6E019308BDAC0106082C
:100A600008B5024B1B689B6E019308BDAC010608DC
:100A700008B5024B1B68DB6E019308BDAC0106088C
:100A800008B5024B1B681B6F019308BDAC0106083B
:100A900008B5034B1B68D3F88030019308BD0000F4
:100AA000AC01060808B5034B1B68D3F890300193DE
:100AB00008BD0000AC01060808B5024B1B681B68A6
:100AC000019308BDBC01060808B5024B1B685B68B2
:100AD000019308BDBC01060808B5024B1B689B6862
:100AE000019308BDBC01060808B5024B1B68DB6812
:100AF000019308BDBC01060808B5024B1B681B69C1
:100B0000019308BDBC01060808B5024B1B681B6AAF
:100B1000019308BDBC01060808B5024B1B681B6B9E
:100B2000019308BDBC01060808B5024B1B685B6C4D
:100B3000019308BDBC01060808B5024B1B689B6900
:100B4000019308BDC401060808B5024B1B685B6A27
:100B5000019308BDC401060808B5024B1B689B6AD7
:100B6000019308BDC401060808B5024B1B68DB6A87
:100B7000019308BDC401060808B5024B1B681B6B36
:100B8000019308BDC401060808B5024B1B685B6BE6
:100B9000019308BDC401060808B5024B1B681B6C15
:100BA000019308BDC401060808B5024B1B681B6809
:100BB000019308BDD801060808B5024B1B685B68A5
:100BC000019308BDD801060808B5024B1B681B69D4
:100BD000019308BDD801060808B5024B1B685B6984
:100BE000019308BDD801060808B5024B1B689B6934
:100BF000019308BDD801060808B5024B1B68DB69E4
:100C0000019308BDD801060808B5024B1B681B6A92
:100C1000019308BDD801060808B5024B1B685B6C40
:100C2000019308BDC001060808B5024B1B689B6C08
:100C3000019308BDC001060808B5024B1B681B6D77
:100C4000019308BDA801020808B5024B1B685B6848
:100C5000019308BDA401060808B5024B1B685B6937
:100C6000019308BDA401060808B5034B1B68D3F81F
:100C70009030019308BD0000A401060808B5034B9D
:100C80001B68D3F89C30019308BD0000A40106083E
:100C900008B5024B1B68DB6B019308BDCC0106084D
:100CA00008B5024B1B685B68019308BDC8010608C4
:100CB00008B5024B1B689B68019308BDC801060874
:100CC00008B5024B1B68DB68019308BDC801060824
:100CD00008B5024B1B681B69019308BDC8010608D3
:100CE00008B5024B1B685B69019308BDC801060883
:100CF00008B5024B1B689B69019308BDC801060833
:100D000008B5024B1B68DB69019308BDC8010608E2
:100D100008B5024B1B681B6A019308BDC801060891
:100D200008B5024B1B689B6A019308BDC801060801
:100D300008B5024B1B681B6B019308BDC801060870
:100D400008B5024B1B685B6B019308BDC801060820
:100D500008B5024B1B681B68019308BDA00106087B
:100D600008B5024B1B685B68019308BDA00106082B
:100D700008B5024B1B689B68019308BDA0010608DB
:100D800008B5024B1B68DB68019308BDA00106088B
:100D900008B5024B1B685B6A019308BDA0010608F9
:100DA0000021FFF759BF10B58368044613B1032231
:100DB00001469847204610BD7047F8B506461546CF
:100DC0000C468F18BC4206D0336814F8011B9B6890
:100DD00030469847F6E72846F8BD0022007CFFF72A
:100DE0002FBE0021007CFFF733BE0021007CFFF7FF
:100DF00037BE0021007CFFF73BBE0021007CFFF7DF
:100E00003FBE10B50446142101F04FF9204610BD35
:100E100010B50446002363604FF47A73A360044B5B
:100E20002174084623601146FFF732FE204610BDAC
:100E30004C340A0800231A461946007CFFF7E8BD27
:100E400070B50C46064686B014252A46002101A836
:100E500002F007FA237800228DF80830636801A9B0
:100E60000393E368307C0493237AADF80450059330
:100E7000FFF718FE06B070BD1FB500338DF80010E7
:100E80004FF06401039118BF0123694601928DF868
:100E90000830FFF7D5FF05B05DF804FB0123FFF72D
:100EA000EBBF0022007CFFF7BBBDC9B2FFF7F9BF63
:100EB0000022007CFFF7BCBD0121FFF7F9BF70479E
:100EC00010B50446182101F0F0F8204610BDF8B521
:100ED0000F4600F10806051D002416F8011D0A2220
:100EE000384600F0FCF9AE42044407D0002CF4D0A0
:100EF0002E21384600F0DAF90444EEE72046F8BD2A
:100F000010B50446044B112240F8043B002102F0C6
:100F1000A8F9204610BD00BF74340A080346074AEA
:100F200010B543F8042B01F1100251F8044B914223
:100F300043F8044BF9D10A781A7010BD74340A08CA
:100F4000024A4160026004220275704774340A0844
:100F500010B59DF8084044EA032343EA024242EAFE
:100F6000016104234160037510BD000037B5044DD5
:100F700005609DF818500095FFF7EAFF03B030BDFB
:100F800074340A0837B50D788B784A78C97800919F
:100F90002946FFF7DDFF03B030BD000010B5044661
:100FA000024B0360FFF7EEFF204610BD74340A08C1
:100FB000704710B50446142101F077F8204610BDA3
:100FC00038B515460369C2680446934207D2D21A5F
:100FD0008068AA4228BF2A46184402F037F92369DC
:100FE0001D44256138BD0EB417B5044605AB53F852
:100FF000042B01690193E36880689942084434BF77
:10100000591A0021019BFFF7C3FE23691844206190
:1010100003B0BDE8104003B0704713B5026802ABDF
:1010200003F8011D946819460122A04702B010BDC3
:1010300010B504467D21FFF7F0FF01232371204600
:1010400010BD08B50379012B02D0022B02D008BDD8
:101050002C2100E03A21FFF7E0FF08BD10B504465F
:10106000FFF7EFFF20467B21FFF7D7FF0023237117
:10107000204610BDF8B504461F461646FFF7E1FFAF
:1010800023682046DD6832463B460349A8470123D2
:1010900023712046F8BD00BFB0340A08F8B50D46EC
:1010A000174622210446FFF7B8FF2A4629462F4457
:1010B000BA4238D0164616F8015B222D03D05C2DBB
:1010C00001D01F2D2DD82368521A9B6820469847BF
:1010D0005C212046FFF7A1FF0C2D19D007D8092D60
:1010E0000FD00A2D12D0082D14D162210AE0222D32
:1010F00005D05C2D03D00D2D0CD1722102E02946C4
:1011000000E074212046FFF788FF09E06E21F9E72F
:101110006621F7E723682A46DB6809492046984795
:1011200031463246C4E7914204D02368521A9D6882
:101130002046A84722212046FFF76FFFF8BD00BFD9
:10114000B8340A0870B504460D461646FFF779FF15
:10115000204632462946FFF7A1FF0223237120468D
:1011600070BD0000014A024B1A60704734350A080E
:10117000B800002000231A464068FFF791BD002206
:1011800002214068FFF79CBD002211464068FFF72E
:101190008FBD002211464068FFF79ABD00231A4612
:1011A00019464068FFF79CBD00231A46194640685F
:1011B000FFF79EBD002281F001014068FFF7A0BD4E
:1011C00000224068FFF7B4BD002211464068FFF7D7
:1011D000B7BD002211464068FFF79ABD70B51646AC
:1011E0008EB0044608A8FFF78BFE1122002103A849
:1011F00002F037F8304602F065F800250A4B0095FA
:1012000081B25B6803AA3046FFF70EFD20B1294684
:101210002046FFF795FE03E003A92046FFF77EFE78
:1012200020460EB070BD00BF40050020034B044AAD
:1012300004280CBF10461846704700BFBC000020B1
:1012400040050020024B034A1A6000225A60704792
:10125000BC000020A4350A08F8B506460D468F18D4
:101260000024BD420CD0336815F8011B9B68304642
:101270009847002801DB0444F3E7002C08BF04462C
:101280002046F8BD70B505460C46084649B102F047
:1012900019F82B68024621462846BDE87040DB68F5
:1012A000184770BD08B5FFF7EDFF08BD03689B68E0
:1012B000184738B50D210546FFF7F8FF0A21044607
:1012C0002846FFF7F3FF204438BD38B50546FFF741
:1012D000D9FF04462846FFF7ECFF204438BD012A19
:1012E00098BF0A2230B50B468BB000218DF8241030
:1012F0000DF12304B3FBF2F505FB1233DBB2092B2E
:1013000094BF30333733DBB2214604F801392B4622
:10131000002DEFD1FFF7B6FF0BB030BD2DE9F04740
:1013200019468046104617461E469DF8205001F08B
:1013300073FC08B14D4912E026F000444FF0FF3233
:101340004B4B3846214601F067FC68B94FF0FF323D
:10135000474B3846214601F041FC28B945494046F3
:10136000FFF790FFBDE8F0874FF06042424B3846F0
:10137000314601F047FC08B14049F0E74FF06042C8
:101380003F4B3846314601F01FFC0028F4D10022C3
:1013900000233846314601F017FC38B12D21404674
:1013A000FFF784FF06F10046044600E00446354995
:1013B0004FF0000900205FFA89F39D4206D9002210
:1013C000314B01F0B9FA09F10109F4E73A46334625
:1013D00000F0D6FF0F46064601F05CFC0A220146EB
:1013E00081464046FFF77BFF0444E5B3484601F0E1
:1013F00003F902460B463046394600F0BFFF064669
:101400000F4640462149FFF73DFF044400221E4B92
:101410003046394601F066F906460F4601F012FCE7
:10142000B0F1000A07DA2D214046FFF73FFFCAF16D
:101430000001814602E051464FF000090A22404671
:10144000FFF74DFF48440444504601F0E5F80246DA
:101450000B463046394600F091FF013D15F0FF057F
:1014600006460F46D2D12046BDE8F087D0350A089F
:10147000FFFFEF7FDA350A08FFFFEF41D4350A0896
:10148000FFFFEFC10000E03F00002440D8350A080C
:1014900037B505461446084601F0D0F8E4B20246D6
:1014A00000940B462846FFF739FF03B030BD9DF886
:1014B00000100091FFF732BF0CB42DE9F04387B064
:1014C00000AF07F1380454F8049B05460E46234646
:1014D0004A461421381D3C60FFF75AFC132805D8F2
:1014E000391D2846FFF7CEFE044613E000F108033D
:1014F00023F00703E846ADEB030D411C23464A46A3
:1015000068463C60FFF744FC69462846FFF7BAFE90
:101510000446C5461EB12846FFF7CBFE04442046CC
:101520001C37BD46BDE8F04302B0704710B5044615
:10153000FFF739FC204610BD034800238360034AAF
:10154000034900F0ADBD00BFC400002070000020C2
:101550002D150A0810B504460068FFF701FC204667
:1015600010BD10B50446006808B1FFF7F9FB002371
:101570002360A360636010BD38B504460D46006863
:101580000131FFF7F5FB10B184E82100012038BDDF
:1015900010B50368044613B143688B4207D2204656
:1015A000FFF7EAFF20B1A3680BB92268137001208E
:1015B00010BD70B50E46114604461546FFF7E8FF0C
:1015C00018B92046FFF7CDFF09E02A463146A5604D
:1015D000206801F03BFE2268A3680021D154204618
:1015E00070BD38B500230446036043608360037315
:1015F0000D4639B1084601F065FE294602462046EF
:10160000FFF7D7FF204638BD10B50446006818B173
:10161000FFF7A6FB0023236010BD10B50446FFF7BB
:10162000F3FF204610BD00004FF6FF7310B5084CC5
:1016300000202060A080A07120816381FFF704FB5F
:101640002046BDE81040034A034900F029BD00BF11
:10165000D4000020700000201B160A0837B502AC29
:10166000036804F8011DDD6B012247F23053214667
:10167000A84703B030BD10B40368DC6B47F23053A9
:10168000A44610BC604737B502AC036804F8011DDE
:10169000DD6B214613460122A84703B030BD7047D9
:1016A00070470020704710B50446142100F0FDFC7F
:1016B000204610BDFEF7F5BC10B5044603689B68D4
:1016C0009847A368013BA3602BB923682046BDE877
:1016D0001040DB68184710BD70B5044606464D69DA
:1016E000044B8C3544F8043B0FCD0FC42B683046B7
:1016F000237070BD74340A0810B543690446B3F80A
:101700008620B3F884309A4205D06269B2F88430FA
:101710001344187910BD03681B6998470028F4D159
:101720004FF0FF3010BD10B543690446B3F8862072
:10173000B3F884309A4208D06269B2F88430591CF8
:10174000A2F884101344187910BD03681B699847E8
:101750000028F1D14FF0FF3010BDF8B543691746AE
:10176000B3F88620B3F8843005469A420E4606D177
:1017700003681B69984710B94FF0FF3414E069699A
:101780003046B1F88430B1F886401944E41ABC42BE
:1017900028BF3C460431224601F058FD6A69B2F880
:1017A00084302344A2F884302046F8BD42690023E7
:1017B000A2F884304269A2F88630704738B5426991
:1017C0000446B2F886301BB1B2F884209A420CD09D
:1017D0002069FFF72BFD0368DB68984718B363693E
:1017E0001868FFF771F918B91DE0FFF7DFFFEFE7A1
:1017F0006069B0F886107F2915D8051DC1F18002F7
:10180000002329440068FFF777F900280BDD63699E
:10181000B3F886200AB9A3F884206269B2F886304A
:101820001844A2F886006269B2F88630B2F88400E3
:10183000181A38BD38B5436904461868FFF744F9EB
:1018400018B163691868FFF75FF96569FFF764F914
:1018500028606069112200218C3001F002FD2046D1
:10186000BDE83840FFF7A2BF2DE9F0411F460368ED
:101870008AB0DB6A06460C46154698473846FFF79D
:10188000D5FC0368DB689847002856D000972B46A4
:10189000062201210220D6F81480FFF71DF920232B
:1018A000C8F8000000270293736903971B680120A2
:1018B0000193234B02AA009322493B46FFF7BCF950
:1018C00073691868FFF700F9002836D03046FFF733
:1018D0006DFF0223ADF808302B0A8DF80A30E3794A
:1018E0004FF4FA508DF80C30A3798DF80B508DF829
:1018F0000D3063798DF80E3014F8043F8DF80F30F9
:10190000FFF78AF973690546102202A91868FFF7E4
:10191000EBF880462846FFF77FF90FCC75698C35C8
:101920000FC523682B70B8F1000F05D0336830461F
:10193000DB6A9847384600E001200AB0BDE8F08134
:101940004F360A0848360A0810B543690446186835
:10195000FFF7BAF808B9002010BD2069FFF766FC50
:101960000368DB6898470028F5D063691868FFF7BB
:10197000A3F8B0FA80F0400910BD2DE9F34100252D
:10198000456004460E4617469846FFF7DDFF60B1F6
:1019900060690195CDF800802B463A4631460068D3
:1019A000FFF7C2F8002803DA01E04FF0FF30606073
:1019B00002B0BDE8F08138B50446FFF7C5FF00BBB3
:1019C0006369B3F88610B3F88420914219D118687E
:1019D000FFF77AF828B163691868FFF76DF80128F6
:1019E00001D000250EE0236820461B699847002897
:1019F00014BF0125002505D123682046DB6A9847DE
:101A000000E00125284638BD08B5FFF79DFF0030EE
:101A100018BF012008BD10B5044600230160A0F8DE
:101A20008430A0F886308830FFF76AFA204610BD6F
:101A30004FF47A7270B58260144A002343600260EA
:101A4000436183610446A0200E46FEF728FB05464D
:101A500010B13146FFF7DFFF1420FEF720FB0346ED
:101A600028B1012242608260094A05610260A069D2
:101A70006561A36128B14368013B43600BB9FFF77F
:101A80001BFE2046FFF792FE204670BD04360A0872
:101A9000E8350A0810B50446FFF73EF8014620462F
:101AA000FFF7C6FF204610BD10B504460068FFF7DB
:101AB0000BF810B12068FFF727F8204610BD10B5CD
:101AC00004692046FFF7F0FF24B12046BDE810402E
:101AD000FEF7E7BA10BD00002DE9F0431F4603688A
:101AE0008FB0DB6A06460D46904698471348FFF7CD
:101AF00050FB00B302A8FFF703FA284601F0E2FB0F
:101B0000002481B200943B4603AA2846FFF78CF8D4
:101B100080B9336809ADD3F82090094B03AC089322
:101B20000FCC0FC5236842462B7008A93B463046B0
:101B3000C84700E020460FB0BDE8F083BC0000209D
:101B400074340A08024B1A68024B1A60704700BFCF
:101B500008000020E000002070474174704708B57D
:101B6000007CFFF719F820EAE07008BD08B5007C9A
:101B7000FEF7F2FF20EAE07008BD08B5007CFEF732
:101B8000FBFF30EA200028BF4FF0FF3008BD08B54A
:101B9000007CFEF7E9FF30EA200028BF4FF0FF305D
:101BA00008BD007CFEF7F0BF10B50446142100F01C
:101BB0007CFA204610BD70B5457C04460E4625B91A
:101BC000007CFEF7E9FF002805DD3146207CBDE8FA
:101BD0007040FEF7B9BF284670BD000010B504463E
:101BE00008461146002262604FF47A72A260054AEC
:101BF00020742260012262741A46FEF79DFF20467F
:101C000010BD00BF94360A0838B50C4D296811F094
:101C1000010411D12846FEF746FA68B1084A214668
:101C2000084B0948FFF7DAFF2846FEF741FA074A52
:101C30000749054800F034FA034838BD7C0100200C
:101C400080010020F8000020E40000207000002047
:101C5000591B0A0841747047704708B50021007C81
:101C6000FEF7C2FF30EA200028BF4FF0FF3008BD6A
:101C700008B50121007CFEF7B7FF30EA200028BF3D
:101C80004FF0FF3008BD08B5007CFEF7A5FF20EA45
:101C9000E07008BD08B5007CFEF796FF20EAE07012
:101CA00008BD007CFEF7B0BF10B50446142100F05B
:101CB000FCF9204610BD38B50446007C0D46FEF701
:101CC0008BFF002801DC607C28B12946207CFEF7D0
:101CD00093FF20EAE07038BD10B50446002363602E
:101CE0004FF47A73A360054B0846236001232174E7
:101CF00063741146FEF758FF204610BDC4360A082B
:101D00000022007CFEF758BF10B5044614220021C3
:101D100001F0A7FA054B20466360054BE36040F2F3
:101D2000011323818123238210BD00BF890200207B
:101D30000802002030B50E4D87B001A8FFF7E4FF80
:101D4000296811F0010410D12846FEF7ACF960B102
:101D500001AA21460748FFF7BFFF2846FEF7A8F96A
:101D6000054A0649034800F09BF9024807B030BD18
:101D7000040200208C03002070000020591C0A0877
:101D800010B504461422002101F06BFA054B2046E1
:101D90006360054BE36040F20113238181232382BA
:101DA00010BD00BF3C040020A403002010B50E4C61
:101DB00086B001A8FFF7E4FF2368DB0710D42046B4
:101DC000FEF771F960B101AA01210848FFF784FF0D
:101DD0002046FEF76DF9064A0649044800F060F90E
:101DE000024806B010BD00BFA00300202804002058
:101DF00070000020591C0A08002211464068FEF7B6
:101E000067BFF0B5164689B011220F46044600217F
:101E100003A801F026FA304601F054FA0025009597
:101E200081B27B6803AA3046FEF7FEFE20B1294648
:101E30002046FFF785F803E003A92046FFF76EF878
:101E4000204609B0F0BD002211464068FEF760BF91
:101E5000002211464068FEF773BF00224068FEF77B
:101E600067BF002281F001014068FEF749BF0023EF
:101E70001A4619464068FEF73BBF00231A4619462A
:101E80004068FEF72DBF002211464068FEF710BFE4
:101E9000002202214068FEF713BF00231A46406863
:101EA000FEF7FEBE024B04225A60024A1A607047D7
:101EB00040050020F4360A0808B5144B33B1FFF78B
:101EC00039FF03681B699847002816DC104B33B1B3
:101ED000FFF79AFE03681B699847002810DC0D4B3A
:101EE0000BB1AFF300800C4B7BB1FFF75FFF0368D2
:101EF0001B699847002806DC08BDAFF30080E5E7C2
:101F0000AFF30080EBE7AFF3008008BD00000000F6
:101F100000000000000000000000000008B5FFF70E
:101F2000CBFFFEF765FD014B186008BD5005002092
:101F30000248034A0349121A01F088B900400240DE
:101F400004400240C0370A0807B5002300931A4630
:101F50006FF07701FEF792FE03B05DF804FB00001E
:101F600007B543880A2B08D0502B09D1094B1B68B1
:101F70003BB103B05DF804EB1847FFF7E5FF06E05F
:101F8000002300931A466FF07701FEF777FE03B047
:101F90005DF804FB4805002038B5104C104D23684F
:101FA000AB42104B0CBF012200221A7002D0FFF787
:101FB000BFFF2560FEF714FD044601F05BF90A4BF4
:101FC00013B12046AFF3008000210748FEF760FE02
:101FD000BDE8384000210548FEF746BE00400240FB
:101FE0001E1C279A4C05002000000000611F0A08F3
:101FF00070B5044614252A46094E002101F031F936
:10200000258020253146A5602561284600F067F827
:1020100031466060284600F062F8E060204670BDFE
:1020200020370A0830B50E4D87B0296811F0010439
:1020300013D12846FEF737F878B101A8FFF7D8FF8B
:1020400001AA21460748FEF7E3FE2846FEF730F8CE
:10205000054A0649034800F023F8024807B030BD9E
:10206000540500205805002070000020B90D0A0812
:1020700013B5084C00231A46194600932046FEF774
:1020800075FF2046044A054902B0BDE8104000F043
:1020900007B800BF6C05002070000020BF0E0A08C2
:1020A0000B460146184601F0C3B8FDF7FABF000021
:1020B000024B1868BFF35F8F704700BF8405002094
:1020C00010B5002814BF044601242046FEF740FE48
:1020D00020B9FFF7EDFF08B18047F6E710BDFFF725
:1020E000EFBF0000244B1A68D0075CBF01221A60C2
:1020F000224B1A68D1075CBF01221A60204B1A6874
:10210000D2075CBF01221A601E4B1A68D0075CBF61
:1021100001221A601C4B1A68D1075CBF01221A60A9
:102120001A4B1A68D2075CBF01221A60184B1A6852
:10213000D0075CBF01221A60164B1A68D1075CBF3A
:1021400001221A60144B1A68D2075CBF01221A6080
:10215000124B1A68D0075CBF01221A60104B1A6834
:10216000D1075CBF01221A600E4B1A68D2075CBF10
:1021700001221A60704700BFB4050020B00500209E
:10218000AC050020A8050020A4050020A005002023
:102190009C05002098050020940500209005002053
:1021A0008C05002088050020184B1A68D1075CBFF9
:1021B00001221A60164B1A68D2075CBF01221A600E
:1021C000144B1A68D0075CBF01221A60124B1A68C0
:1021D000D1075CBF01221A60104B1A68D2075CBF9E
:1021E00001221A600E4B1A68D0075CBF01221A60E8
:1021F0000C4B1A68D1075CBF01221A600A4B1A689F
:10220000D2075CBF01221A60704700BFD4050020CE
:10221000D0050020CC050020C8050020C405002002
:10222000C0050020BC050020B8050020184B1A6826
:10223000D1075CBF01221A60164B1A68D2075CBF37
:1022400001221A60144B1A68D0075CBF01221A6081
:10225000124B1A68D1075CBF01221A60104B1A6832
:10226000D2075CBF01221A600E4B1A68D0075CBF10
:1022700001221A600C4B1A68D1075CBF01221A6058
:102280000A4B1A68D2075CBF01221A60704700BF70
:10229000F4050020F0050020EC050020E8050020F2
:1022A000E4050020E0050020DC050020D805002022
:1022B000244B1A68D0075CBF01221A60224B1A68AF
:1022C000D1075CBF01221A60204B1A68D2075CBF9D
:1022D00001221A601E4B1A68D0075CBF01221A60E7
:1022E0001C4B1A68D1075CBF01221A601A4B1A688E
:1022F000D2075CBF01221A60184B1A68D0075CBF76
:1023000001221A60164B1A68D1075CBF01221A60BD
:10231000144B1A68D2075CBF01221A60124B1A686C
:10232000D0075CBF01221A60104B1A68D1075CBF4E
:1023300001221A600E4B1A68D2075CBF01221A6094
:10234000704700BF24060020200600201C06002045
:102350001806002014060020100600200C0600209D
:10236000080600200406002000060020FC050020CE
:10237000F805002081F0004102E000BF83F0004337
:1023800030B54FEA41044FEA430594EA050F08BF10
:1023900090EA020F1FBF54EA000C55EA020C7FEAD4
:1023A000645C7FEA655C00F0E2804FEA5454D4EB51
:1023B0005555B8BF6D420CDD2C4480EA020281EA1B
:1023C000030382EA000083EA010180EA020281EA53
:1023D0000303362D88BF30BD11F0004F4FEA0131A5
:1023E0004FF4801C4CEA113102D0404261EB4101B4
:1023F00013F0004F4FEA03334CEA133302D052423A
:1024000063EB430394EA050F00F0A780A4F10104F5
:10241000D5F1200E0DDB02FA0EFC22FA05F280182F
:1024200041F1000103FA0EF2801843FA05F3594115
:102430000EE0A5F120050EF1200E012A03FA0EFC94
:1024400028BF4CF0020C43FA05F3C01851EBE371BE
:1024500001F0004507D54FF0000EDCF1000C7EEBDB
:1024600000006EEB0101B1F5801F1BD3B1F5001F19
:102470000CD349085FEA30004FEA3C0C04F1010438
:102480004FEA445212F5800F80F09A80BCF1004F61
:1024900008BF5FEA500C50F1000041EB045141EAE3
:1024A000050130BD5FEA4C0C404141EB010111F4E4
:1024B000801FA4F10104E9D191F0000F04BF01468F
:1024C0000020B1FA81F308BF2033A3F10B03B3F16D
:1024D00020020CDA0C3208DD02F1140CC2F10C02FD
:1024E00001FA0CF021FA02F10CE002F11402D8BF5B
:1024F000C2F1200C01FA02F120FA0CFCDCBF41EA27
:102500000C019040E41AA2BF01EB0451294330BDF5
:102510006FEA04041F3C1CDA0C340EDC04F11404D2
:10252000C4F1200220FA04F001FA02F340EA0300A9
:1025300021FA04F345EA030130BDC4F10C04C4F1EF
:10254000200220FA02F001FA04F340EA03002946CF
:1025500030BD21FA04F0294630BD94F0000F83F419
:10256000801306BF81F480110134013D4EE77FEAFC
:10257000645C18BF7FEA655C29D094EA050F08BF48
:1025800090EA020F05D054EA000C04BF1946104629
:1025900030BD91EA030F1EBF0021002030BD5FEA6D
:1025A000545C05D14000494128BF41F0004130BD95
:1025B00014F580043CBF01F5801130BD01F00045E9
:1025C00045F0FE4141F470014FF0000030BD7FEA5C
:1025D000645C1ABF194610467FEA655C1CBF0B4657
:1025E000024650EA013406BF52EA033591EA030F6E
:1025F00041F4002130BD00BF90F0000F04BF002166
:10260000704730B54FF4806404F132044FF0000598
:102610004FF0000150E700BF90F0000F04BF002111
:10262000704730B54FF4806404F1320410F0004577
:1026300048BF40424FF000013EE700BF42004FEA72
:10264000E2014FEA31014FEA02701FBF12F07F43EF
:1026500093F07F4F81F06051704792F0000F14BFEC
:1026600093F07F4F704730B54FF4607401F0004530
:1026700021F0004120E700BF50EA010208BF704787
:1026800030B54FF000050AE050EA010208BF70477C
:1026900030B511F0004502D5404261EB41014FF4E5
:1026A000806404F132045FEA915C3FF4DCAE4FF0E9
:1026B00003025FEADC0C18BF03325FEADC0C18BFD0
:1026C000033202EBDC02C2F1200300FA03FC20FA21
:1026D00002F001FA03FE40EA0E0021FA02F114446E
:1026E000C1E600BF70B54FF0FF0C4CF4E06C1CEA83
:1026F00011541DBF1CEA135594EA0C0F95EA0C0FF8
:1027000000F0DEF82C4481EA030621EA4C5123EA6A
:102710004C5350EA013518BF52EA033541F4801199
:1027200043F4801338D0A0FB02CE4FF00005E1FB4C
:1027300002E506F00042E0FB03E54FF00006E1FB96
:1027400003569CF0000F18BF4EF0010EA4F1FF04D9
:10275000B6F5007F64F5407404D25FEA4E0E6D4119
:1027600046EB060642EAC62141EA55514FEAC5202A
:1027700040EA5E504FEACE2EB4F1FD0C88BFBCF5A6
:10278000E06F1ED8BEF1004F08BF5FEA500E50F157
:10279000000041EB045170BD06F0004646EA01011D
:1027A00040EA020081EA0301B4EB5C04C2BFD4EB4F
:1027B0000C0541EA045170BD41F480114FF0000E48
:1027C000013C00F3AB8014F1360FDEBF002001F0B6
:1027D000004170BDC4F10004203C35DA0C341BDC30
:1027E00004F11404C4F1200500FA05F320FA04F002
:1027F00001FA05F240EA020001F0004221F0004136
:1028000010EBD37021FA04F642EB06015EEA430EA8
:1028100008BF20EAD37070BDC4F10C04C4F12005D8
:1028200000FA04F320FA05F001FA04F240EA02008B
:1028300001F0004110EBD37041F100015EEA430E5C
:1028400008BF20EAD37070BDC4F1200500FA05F27C
:102850004EEA020E20FA04F301FA05F243EA0203FB
:1028600021FA04F001F0004121FA04F220EA02000A
:1028700000EBD3705EEA430E08BF20EAD37070BD50
:1028800094F0000F0FD101F00046400041EB010130
:1028900011F4801F08BF013CF7D041EA060195F012
:1028A000000F18BF704703F00046520043EB0303CC
:1028B00013F4801F08BF013DF7D043EA06037047B9
:1028C00094EA0C0F0CEA135518BF95EA0C0F0CD0C4
:1028D00050EA410618BF52EA4306D1D181EA03010A
:1028E00001F000414FF0000070BD50EA410606BF04
:1028F0001046194652EA430619D094EA0C0F02D149
:1029000050EA013613D195EA0C0F05D152EA03368D
:102910001CBF104619460AD181EA030101F00041AB
:1029200041F0FE4141F470014FF0000070BD41F0F4
:10293000FE4141F4780170BD70B54FF0FF0C4CF4CE
:10294000E06C1CEA11541DBF1CEA135594EA0C0FED
:1029500095EA0C0F00F0A7F8A4EB050481EA030E3A
:1029600052EA03354FEA013100F088804FEA033321
:102970004FF0805545EA131343EA12634FEA0222EF
:1029800045EA111545EA10654FEA00260EF00041B0
:102990009D4208BF964244F1FD0404F5407402D202
:1029A0005B084FEA3202B61A65EB03055B084FEA93
:1029B00032024FF480104FF4002CB6EB020E75EB90
:1029C000030E22BFB61A754640EA0C005B084FEAB8
:1029D0003202B6EB020E75EB030E22BFB61A754635
:1029E00040EA5C005B084FEA3202B6EB020E75EB80
:1029F000030E22BFB61A754640EA9C005B084FEAF8
:102A00003202B6EB020E75EB030E22BFB61A754604
:102A100040EADC0055EA060E18D04FEA051545EAF3
:102A200016754FEA06164FEAC30343EA52734FEA9C
:102A3000C2025FEA1C1CC0D111F4801F0BD141EA15
:102A400000014FF000004FF0004CB6E711F4801F7A
:102A500004BF01430020B4F1FD0C88BFBCF5E06F5A
:102A60003FF6AFAEB5EB030C04BFB6EB020C5FEA6A
:102A7000500C50F1000041EB045170BD0EF0004EBF
:102A80004EEA113114EB5C04C2BFD4EB0C0541EAF1
:102A9000045170BD41F480114FF0000E013C90E6EE
:102AA00045EA060E8DE60CEA135594EA0C0F08BFB2
:102AB00095EA0C0F3FF43BAF94EA0C0F0AD150EAB1
:102AC00001347FF434AF95EA0C0F7FF425AF104644
:102AD00019462CE795EA0C0F06D152EA03353FF46C
:102AE000FDAE1046194622E750EA410618BF52EAE9
:102AF00043067FF4C5AE50EA41047FF40DAF52EABD
:102B000043057FF4EBAE12E74FF0FF3C06E000BF59
:102B10004FF0010C02E000BF4FF0010C4DF804CD66
:102B20004FEA410C7FEA6C5C4FEA430C18BF7FEA26
:102B30006C5C1BD001B050EA410C0CBF52EA430C54
:102B400091EA030F02BF90EA020F0020704710F1D4
:102B5000000F91EA030F58BF994208BF90422CBF63
:102B6000D8176FEAE37040F0010070474FEA410C5C
:102B70007FEA6C5C02D150EA013C07D14FEA430C7A
:102B80007FEA6C5CD6D152EA033CD3D05DF8040BEB
:102B9000704700BF8446104662468C46194663461D
:102BA00000E000BF01B5FFF7B7FF002848BF10F1F4
:102BB000000F01BD4DF808EDFFF7F4FF0CBF012039
:102BC00000205DF808FB00BF4DF808EDFFF7EAFFB5
:102BD00034BF012000205DF808FB00BF4DF808ED70
:102BE000FFF7E0FF94BF012000205DF808FB00BF65
:102BF0004DF808EDFFF7CEFF94BF012000205DF8EF
:102C000008FB00BF4DF808EDFFF7C4FF34BF0120FB
:102C100000205DF808FB00BF4FEA410C7FEA6C5CC6
:102C200002D150EA013C0AD14FEA430C7FEA6C5CC6
:102C300002D152EA033C02D14FF0000070474FF03E
:102C4000010070474FEA410212F5001215D211D56A
:102C50006FF47873B3EB625212D94FEAC12343F099
:102C6000004343EA505311F0004F23FA02F018BF1B
:102C7000404270474FF00000704750EA013005D1E4
:102C800011F0004008BF6FF0004070474FF00000A7
:102C9000704700BF4A0011D212F5001211D20DD5B3
:102CA0006FF47873B3EB62520ED44FEAC12343F052
:102CB000004343EA505323FA02F070474FF00000FC
:102CC000704750EA013002D14FF0FF3070474FF0AB
:102CD000000070474FEA4102B2F1E04324BFB3F570
:102CE000001CDCF1FE5C0DD901F0004C4FEAC00283
:102CF0004CEA5070B2F1004F40EB830008BF20F067
:102D00000100704711F0804F21D113F13872BCBF20
:102D100001F00040704741F480114FEA5252C2F175
:102D20001802C2F1200C10FA0CF320FA02F018BFBE
:102D300040F001004FEAC1234FEAD32303FA0CFC11
:102D400040EA0C0023FA02F34FEA4303CCE77FEAA0
:102D5000625307D150EA01331EBF4FF0FE4040F4EA
:102D60004000704701F0004040F0FE4040F4000099
:102D7000704700BF80F0004002E000BF81F00041DA
:102D800042001FBF5FEA410392EA030F7FEA226C11
:102D90007FEA236C6AD04FEA1262D2EB1363C1BFA1
:102DA000D218414048404140B8BF5B42192B88BF10
:102DB000704710F0004F40F4000020F07F4018BF33
:102DC000404211F0004F41F4000121F07F4118BF53
:102DD000494292EA030F3FD0A2F1010241FA03FCFB
:102DE00010EB0C00C3F1200301FA03F100F00043E3
:102DF00002D5494260EB4000B0F5000F13D3B0F1AB
:102E0000807F06D340084FEA310102F10102FE2A19
:102E100051D2B1F1004F40EBC25008BF20F0010089
:102E200040EA03007047490040EB000010F4000F37
:102E3000A2F10102EDD1B0FA80FCACF1080CB2EBCA
:102E40000C0200FA0CF0AABF00EBC2505242184329
:102E5000BCBFD0401843704792F0000F81F40001CE
:102E600006BF80F400000132013BB5E74FEA4103A1
:102E70007FEA226C18BF7FEA236C21D092EA030F0D
:102E800004D092F0000F08BF0846704790EA010F87
:102E90001CBF0020704712F07F4F04D1400028BFB4
:102EA00040F00040704712F100723CBF00F5000096
:102EB000704700F0004343F0FE4040F400007047CC
:102EC0007FEA226216BF08467FEA23630146420278
:102ED00006BF5FEA412390EA010F40F4800070478B
:102EE0004FF0000304E000BF10F0004348BF404231
:102EF0005FEA000C08BF704743F0964301464FF06D
:102F000000001CE050EA010208BF70474FF00003C8
:102F10000AE000BF50EA010208BF704711F0004309
:102F200002D5404261EB41015FEA010C02BF8446D9
:102F30000146002043F0B64308BFA3F18053A3F538
:102F40000003BCFA8CF2083AA3EBC25310DB01FA7F
:102F500002FC634400FA02FCC2F12002BCF1004F03
:102F600020FA02F243EB020008BF20F00100704794
:102F700002F1200201FA02FCC2F1200250EA4C00E8
:102F800021FA02F243EB020008BF20EADC7070472E
:102F90004FF0FF0C1CEAD0521EBF1CEAD15392EA3C
:102FA0000C0F93EA0C0F6FD01A4480EA010C400218
:102FB00018BF5FEA41211ED04FF0006343EA501072
:102FC00043EA5111A0FB01310CF00040B1F5000FB4
:102FD0003EBF490041EAD3715B0040EA010062F163
:102FE0007F02FD2A1DD8B3F1004F40EBC25008BF4D
:102FF00020F00100704790F0000F0CF0004C08BF6B
:1030000049024CEA502040EA51207F3AC2BFD2F137
:10301000FF0340EAC250704740F400004FF0000345
:10302000013A5DDC12F1190FDCBF00F0004070477F
:10303000C2F10002410021FA02F1C2F1200200FABD
:1030400002FC5FEA310040F1000053EA4C0308BF84
:1030500020EADC70704792F0000F00F0004C02BFD5
:10306000400010F4000F013AF9D040EA0C0093F050
:10307000000F01F0004C02BF490011F4000F013BAA
:10308000F9D041EA0C018FE70CEAD15392EA0C0F18
:1030900018BF93EA0C0F0AD030F0004C18BF31F083
:1030A000004CD8D180EA010000F00040704790F059
:1030B000000F17BF90F0004F084691F0000F91F0FD
:1030C000004F14D092EA0C0F01D142020FD193EAC3
:1030D0000C0F03D14B0218BF084608D180EA01004B
:1030E00000F0004040F0FE4040F40000704740F027
:1030F000FE4040F4400070474FF0FF0C1CEAD052F5
:103100001EBF1CEAD15392EA0C0F93EA0C0F69D050
:10311000A2EB030280EA010C49024FEA402037D0BB
:103120004FF0805343EA111143EA10130CF00040B2
:103130008B4238BF5B0042F17D024FF4000C8B42A2
:1031400024BF5B1A40EA0C00B3EB510F24BFA3EB82
:10315000510340EA5C00B3EB910F24BFA3EB910352
:1031600040EA9C00B3EBD10F24BFA3EBD10340EAAC
:10317000DC001B0118BF5FEA1C1CE0D1FD2A3FF6F2
:1031800050AF8B4240EBC25008BF20F001007047A7
:103190000CF0004C4CEA50207F32C2BFD2F1FF034A
:1031A00040EAC250704740F400004FF00003013A7B
:1031B00037E792F0000F00F0004C02BF400010F41F
:1031C000000F013AF9D040EA0C0093F0000F01F033
:1031D000004C02BF490011F4000F013BF9D041EA55
:1031E0000C0195E70CEAD15392EA0C0F08D1420288
:1031F0007FF47DAF93EA0C0F7FF470AF084676E75B
:1032000093EA0C0F04D14B023FF44CAF08466EE733
:1032100030F0004C18BF31F0004CCAD130F0004201
:103220007FF45CAF31F000437FF43CAF5FE700BF59
:1032300010B5054C13462CB10A4601460220AFF3E7
:10324000008010BD204610BD0000000010B5431ED8
:103250000A44914204D011F8014B03F8014FF8E7FA
:1032600010BD03460244934202D003F8011BFAE763
:103270007047000038B5124B05461C68A36BD3B9E4
:103280001820FDF765FD43F20E33A06303804AF674
:10329000CD33438041F2342383804EF26D63C3808B
:1032A0004DF6EC630381052343810B2383810122C7
:1032B0000023C0E90423A36B00221D615A6138BDBD
:1032C0006C000020034613F8012B002AFBD1181ACA
:1032D0000138704721000A0861000A088D000A08B9
:1032E00091000A08000000004D504C333131354147
:1032F0003220466F756E6400536937303231204694
:103300006F756E640048545532314420466F756EB7
:1033100064004D504C333131354132204E4F5420F2
:10332000466F756E64004E6F2054656D702F487542
:103330006D696469747920446576696365204465C4
:10334000746563746564004E6F20446576696365D7
:103350007320446574656374656400C0A8013143DB
:103360006F6E74656E742D4C656E6774683A2025B7
:103370006400636F6E6E656374656400504F5354F0
:10338000202F7765617468657220485454502F313E
:103390002E3100486F73743A203139322E3136386D
:1033A0002E312E34393A3330303100436F6E74652C
:1033B0006E742D547970653A206170706C69636128
:1033C00074696F6E2F6A736F6E00556E61626C6503
:1033D00020546F20436F6E6E65637400462C20008E
:1033E00048756D69646974793A00252C2000426142
:1033F000726F5F54656D703A0050726573737572C9
:10340000653A006850612C200068756D69646974C4
:1034100079006261726F5F74656D700070726573C0
:10342000737572650025730070686F6269637374E9
:1034300072656574313339005065726B794D65730F
:10344000680000000000000000000000B90D0A083C
:10345000030E0A08DB0D0A08BB0D0A08E30D0A0873
:10346000EB0D0A08F30D0A08FB0D0A080000000026
:1034700000000000CF0E0A08BF0E0A08C10E0A089D
:103480000000000000000000B10F0A08B30F0A0896
:10349000C10F0A08E70F0A08302E300066616C730E
:1034A00065007472756500257500252E2A6C66000E
:1034B0002567006E756C6C0075253034780062618C
:1034C00075640053657269616C00555342536572AF
:1034D00069616C31007479706500706172616D00B2
:1034E000636D6400696400686E64007374726D00DB
:1034F00066696C74006C766C0061646448616E642B
:103500006C65720072656D6F766548616E646C659E
:103510007200656E756D48616E646C657273004A09
:10352000534F4E53747265616D4C6F6748616E64A2
:103530006C65720061707000253031307520005D5F
:10354000200028293A2000205B00636F6465203D3D
:10355000200025690064657461696C73203D20005A
:103560000D0A006C6E00666E00636F646500646532
:103570007461696C006E6F6E6500747261636500E2
:10358000696E666F007761726E006572726F7200AD
:1035900070616E696300616C6C00000000000000E7
:1035A0000000000075110A087F110A0889110A0835
:1035B00093110A089D110A08A9110A08B5110A08F1
:1035C000C1110A08C9110A08D3110A08DD110A0835
:1035D0006E616E006F7666002E00696E66000000F8
:1035E0000000000000000000A1160A08A7160A0843
:1035F000BF1A0A08B5160A08A3160A080000000038
:10360000000000006D050A08A1050A085D160A08F9
:1036100077160A08BD170A0827170A08F9160A08B4
:103620009F160A0869180A08D91A0A085B170A08B7
:1036300035180A08B7190A08091A0A0887160A0865
:103640007B190A08D9160A08776972696E670054EF
:103650004350436C69656E7420736F636B65743D92
:103660002578005A00252B3033643A253032750016
:1036700025592D256D2D25645425483A254D3A258B
:1036800053257A0061736374696D65000000000062
:1036900000000000591B0A08A91B0A08B71B0A08EA
:1036A00059120A086D1B0A088F1B0A087B1B0A089F
:1036B000A31B0A085B1B0A085F1B0A080000000026
:1036C00000000000591C0A08A91C0A08B71C0A08B7
:1036D00059120A08951C0A085B1C0A08711C0A0882
:1036E000A31C0A08871C0A08551C0A0800000000D1
:1036F000000000009B1E0A08911E0A08871E0A0887
:10370000F91D0A087B1E0A086F1E0A08631E0A08B4
:103710005B1E0A08511E0A08471E0A08031E0A08F3
:103720000000000000000000000000000000000099
:103730000000000000000000000000000000000089
:103740000000000000000000000000000000000079
:103750000000000000000000000000000000000069
:103760000000000000000000000000000000000059
:103770000000000000000000000000000000000049
:10378000000000004300000069050A088D090A08CE
:1037900065110A0845120A0839150A0829160A0887
:1037A000451B0A08A51E0A0871200A08E5200A0818
:1037B000A9210A082D220A08B1220A0800000000E7
:0437C0000000000005
:1037C40028340A0838340A0884360A08000000003D
:1037D40024370A0844370A0864370A08000000003E
:1037E40000000000000000000000000084370A0808
:1037F40000000000000000000000000000000000C5
:1038040000000000000000000000000000000000B4
:1038140000000000000000000000000000000000A4
:103824000000000000000000000000000C00002068
:10383400FFFFFFFF00000102030405060708090A51
:103844000B0C0D0E0F101112131415161718191A4C
:083854001B1C1D1E1F20280093
:04385C007856341254
:04000005080A0020C5
:00000001FF
